:020000040800F2
:100000000000022051230008711200087912000834
:1000100081120008891200089112000800000000F7
:10002000000000000000000000000000991200081D
:10003000A712000800000000B5120008C312000853
:10004000A1230008A1230008A1230008A123000880
:10005000A1230008A1230008A1230008A123000870
:10006000A1230008A1230008A1230008A123000860
:10007000A1230008A1230008A1230008A123000850
:10008000A1230008A1230008A1230008A123000840
:10009000A1230008A1230008A1230008A123000830
:1000A000A1230008A1230008A1230008A123000820
:1000B000A1230008D1200008A1230008A1230008E3
:1000C000A1230008A1230008A1230008A123000800
:1000D000A1230008F9220008A1230008A123000899
:1000E000A1230008A1230008A1230008A1230008E0
:1000F000A1230008A1230008A1230008A1230008D0
:10010000A1230008A1230008A1230008A1230008BF
:10011000A1230008A1230008A1230008A1230008AF
:10012000A1230008A1230008A1230008A12300089F
:10013000A1230008A1230008A1230008A12300088F
:10014000A1230008A1230008A1230008A12300087F
:10015000A1230008A1230008A1230008A12300086F
:10016000A1230008A1230008A1230008A12300085F
:10017000A1230008A1230008A1230008000000001B
:08018000A1230008A1230008DF
:1001900010B5054C237833B9044B13B10448AFF3C1
:1001A00000800123237010BD7C00002000000000AF
:1001B000A860000808B5034B1BB103490348AFF31F
:1001C000008008BD0000000080000020A86000083A
:1001D00001F0FF01102A2BDB10F0070F08D010F8F8
:1001E000013B013A8B422DD010F0070F42B3F6D1FC
:1001F000F0B441EA012141EA014122F007047FF015
:1002000000070023F0E80256083C85EA010586EA6B
:10021000010685FA47F5A3FA87F586FA47F6A5FAA7
:1002200087F68EB9EED1F0BC01F0FF0102F00702B3
:1002300032B110F8013B013A83EA010313B1F8D15E
:100240000020704701387047002D06BF354603383F
:10025000073815F0010F07D1013015F4807F02BF78
:10026000013015F4C03F0130F0BC0138704700BFC9
:1002700053B94AB9002908BF00281CBF4FF0FF310D
:100280004FF0FF3000F06AB9ADF1080C6DE904CE13
:1002900000F006F8DDF804E0DDE9022304B0704761
:1002A0002DE9F047089D0C46002B4ED194468C4515
:1002B0008646B2FA82F262D94AB1C2F12003914075
:1002C00020FA03F30CFA02FC194300FA02FE4FEA8B
:1002D0001C471FFA8CF6B1FBF7F44FEA1E4307FBED
:1002E000141143EA014304FB06F199420AD91CEBBD
:1002F000030304F1FF3080F01281994240F20F8134
:10030000023C6344591A1FFA8EF3B1FBF7F007FB66
:10031000101143EA014300FB06F69E420AD91CEB8A
:10032000030300F1FF3180F0FC809E4240F2F9802F
:10033000634402389B1B40EA044000211DB1D340B6
:100340000022C5E90032BDE8F0878B4205D90DB126
:10035000C5E9000100210846F5E7B3FA83F1002959
:1003600046D1A34202D39042C0F0F080861A64EBDB
:1003700003030120002DE6D0C5E90063E3E7002A6E
:1003800040F09080A1EB0C044FEA1C481FFA8CF758
:100390000121B4FBF8F64FEA1E4308FB164443EA7A
:1003A000044307FB06F0984208D91CEB030306F14F
:1003B000FF3402D2984200F2CD8026461C1A1FFA62
:1003C0008EF3B4FBF8F008FB104443EA044300FB4F
:1003D00007F79F4208D91CEB030300F1FF3402D258
:1003E0009F4200F2B0802046DB1B40EA0640A5E7B2
:1003F000C1F120068B4022FA06F71F4320FA06FCC3
:1004000004FA01F343EA0C03F44000FA01F8380C53
:100410004FEA1349B4FBF0FE1FFA87FC00FB1E44B1
:1004200049EA04440EFB0CF9A14502FA01F20AD98B
:100430003C190EF1FF3A80F08480A14540F28180A2
:10044000AEF1020E3C44A4EB09041FFA83F9B4FB9D
:10045000F0F300FB134449EA044403FB0CFCA445FD
:1004600007D93C1903F1FF3067D2A44565D9023B97
:100470003C4443EA0E40A0FB0293A4EB0C049C42D4
:10048000CE469C4651D34ED055B1B8EB0E0364EB2B
:100490000C0404FA06F6CB401E43CC40C5E90064C8
:1004A000002150E7C2F1200320FA03F10CFA02FC0C
:1004B00024FA03F394400C434FEA1C4800FA02FE6E
:1004C0001FFA8CF7B3FBF8F008FB1031230C43EA5A
:1004D000014300FB07F1994208D91CEB030300F12B
:1004E000FF362CD299422AD9023863445B1AA4B24F
:1004F000B3FBF8F108FB113344EA034401FB07F3B3
:10050000A34208D91CEB040401F1FF3613D2A34225
:1005100011D902396444E41A41EA004139E704463A
:10052000F0E6084606E7C845AED2B9EB020E63EB2B
:10053000070C0138A8E73146EDE7034699E7304656
:10054000D4E7D6467FE7634402384DE706462346A4
:1005500008460FE7023E634430E700BF704700BF24
:1005600080B582B000AF0346FB71042002F0AAF808
:10057000FB79034A136000BF0837BD4680BD00BF4A
:100580009800002080B489B000AF78600023BB6180
:10059000194B5B687B61194B1A687B6802FB03F39C
:1005A0003B61154B9B68FB61134B9B68FB60FA68D2
:1005B000FB699A42F8D0FA68FB699A4206D2FA6956
:1005C000FB68D31ABA691344BB6107E07A69FB6818
:1005D000D21AFB691344BA691344BB61FB68FB611F
:1005E000BA693B699A4200D2DEE700BF00BF2437F8
:1005F000BD465DF8047B704710E000E098000020E5
:1006000080B584B000AF0346FB800023FB6006E0AA
:100610004FF47A70FFF7B6FFFB680133FB60FB888D
:10062000FA689A42F4D300BF00BF1037BD4680BDC0
:1006300080B586B000AF00233B60124B1B6B114AA4
:1006400043F0200313630F4B1B6B03F020033B604D
:100650003B684FF480737B600123BB600123FB6028
:1006600003233B613B1D1946074802F069F800224D
:100670004FF48071044802F0FFF900BF1837BD46FF
:1006800080BD00BF003802400014024080B588B031
:1006900000AF0023BB601A4B1B6B194A43F00103E8
:1006A0001363174B1B6B03F00103BB60BB68002394
:1006B0007B60134B1B6B124A43F010031363104B08
:1006C0001B6B03F010037B607B681C23FB60002323
:1006D0003B6101237B6107F10C031946094802F0D5
:1006E0002FF80123FB6002237B6107F10C031946FD
:1006F000054802F025F800BF2037BD4680BD00BF89
:1007000000380240001002400000024080B582B074
:1007100000AF0346FB71FB79012B02D1274B01226D
:100720001A70264B1B78012B2DD1254B1B68012BF2
:100730000BD0244B1B68002B07D0234B1B68002BCE
:1007400003D0224B1B68002B1DD10A20FFF758FF56
:100750001A4B00221A701A4B1B68012B01D101237E
:1007600027E0184B1B68002B01D1022321E0164B18
:100770001B68002B01D103231BE0144B1B68002BCB
:1007800015D1042315E00E4B1B68002B10D10D4B27
:100790001B68012B0CD10C4B1B68012B08D10B4B98
:1007A0001B68012B04D1054B01221A7000E000BF29
:1007B000002318460837BD4680BD00BF000000205A
:1007C00000024042100242420C02424208024242EF
:1007D00080B588B000AF0023BB602E4B1B6B2D4A49
:1007E00043F0200313632B4B1B6B03F02003BB6010
:1007F000BB6800237B60274B1B6B264A43F020031A
:100800001363244B1B6B03F020037B607B68002386
:100810003B60204B1B6B1F4A43F0200313631D4BAF
:100820001B6B03F020033B603B684FF40073FB60DD
:1008300001233B6101237B610323BB6107F10C03AF
:100840001946154801F07CFF4FF48063FB6007F107
:100850000C031946104801F073FF4023FB6007F1B9
:100860000C0319460C4801F06BFF01224FF4007194
:10087000094802F001F901224FF48061064802F0B4
:10088000FBF801224021044802F0F6F800BF2037AF
:10089000BD4680BD003802400014024080B584B0DF
:1008A00002AF0023FB710023BB7101F07BFD00F060
:1008B00051FA072302224FF4A871082000F074FDBA
:1008C000FFF786FFFFF7E2FEA820FFF749FE44F29C
:1008D0009F1144F61F6001F0ADFB4FF4E13001F0D1
:1008E00029FC40F28F6140F2E73000F0E5FB00F0B8
:1008F00081FA00F097FFFFF79BFEB14B00221A80B0
:100900004FF47A70FFF77CFEAE4B1B68002B0CBFD8
:1009100001230023DAB2AB4B1A600020FFF7F6FE8A
:100920000346BB71BB79013B032B37D801A252F8B8
:1009300023F000BF45090008870900085B0900088B
:1009400071090008A04BD3ED007AB2EE047A77EE7D
:10095000877A9D4BC3ED007A21E09B4BD3ED007A63
:10096000B2EE047A77EEC77A974BC3ED007A16E0C1
:10097000954BD3ED017AB2EE047A77EE877A924BFB
:10098000C3ED017A0BE0904BD3ED017AB2EE047A1D
:1009900077EEC77A8C4BC3ED017A00E000BF8B4B3A
:1009A000B3F900301A46182300931823DC210A20DB
:1009B00001F080FA854BB3F902301A4618230093F0
:1009C0001823F0210A2001F075FA804BB3F90430A6
:1009D0001A461823009318234FF482710A2001F05D
:1009E00069FA7A4BB3F906301A4618230093182394
:1009F0004FF48C710A2001F05DFA744BB3F90830A2
:100A00001A461823009318234FF496710A2001F018
:100A100051FA6E4BB3F90A301A4618230093182383
:100A20004FF4A0710A2001F045FA684BB3F90C307D
:100A30001A461823009318234FF4AA710A2001F0D4
:100A400039FA624BB3F90E301A4618230093182373
:100A50004FF4B4710A2001F02DFA5C4BB3F9103059
:100A60001A461823009318234FF4BE710A2001F090
:100A700021FA554BD3ED017AFCEEE77A1823009367
:100A8000182317EE902A4FF4C871282001F012FAAB
:100A90004D4BD3ED007AFCEEE77A18230093182330
:100AA00017EE902A4FF4D271282001F003FA474B39
:100AB000B3F90A30062B00F2078101A252F823F0A5
:100AC000DD0A00080B0B0008330B0008750B00084B
:100AD000E50B0008310C00087D0C00083C4B1B683E
:100AE000012B0BD1374B1B68002B0CBF01230023BC
:100AF000DAB2344B1A60364B00221A60324B354A58
:100B00001A60314B334A5A60E1E0314B1B68002BCD
:100B10000BD12C4B1B68002B0CBF01230023DAB236
:100B2000284B1A602A4B01221A60012000F0B2F90A
:100B3000CDE0274B1B68002B0BD1224B1B68002BF1
:100B40000CBF01230023DAB21E4B1A60204B012296
:100B50001A60214B1B68002B03D1012000F09AF989
:100B6000B4E01D4B1B68012B40F0B080022000F068
:100B700091F9ABE0164B1B68012B0BD1114B1B6895
:100B8000002B0CBF01230023DAB20E4B1A60104B6E
:100B900000221A604FF6FF730093C823A0223C2165
:100BA0000A2001F065F80D4B1A880C4B5B880C4944
:100BB00001911821009164210A2001F0EDF986E0ED
:100BC000A401002098824242040000200803002073
:100BD0009C0000200000B442A0000020A8010020DA
:100BE000C0600008524B1B68012B0BD1514B1B6896
:100BF000002B0CBF01230023DAB24E4B1A604C4B82
:100C000000221A604FF6FF730093C823A0223C21F4
:100C10000A2001F02DF8484B1A88474B5B8847495A
:100C200001911821009178210A2001F0B5F94EE0D8
:100C30003F4B1B68012B0BD13E4B1B68002B0CBF9D
:100C400001230023DAB23B4B1A60394B00221A60B1
:100C50004FF6FF730093C823A0223C210A2001F025
:100C600007F8354B1A88344B5B88354901911821B8
:100C700000918C210A2001F08FF928E02C4B1B6891
:100C8000012B0BD12B4B1B68002B0CBF0123002326
:100C9000DAB2284B1A60264B00221A604FF6FF7317
:100CA0000093C823A0223C210A2000F0E1FF224B40
:100CB0001A88214B5B882349019118210091A021BA
:100CC0000A2001F069F902E000BF00E000BF1E4BFE
:100CD000D3ED017AFCEEE77A17EE901A052000F0CA
:100CE00061F8194BD3ED007AFCEEE77A17EE901A13
:100CF000062000F057F8FB790133FB71FA79134BAA
:100D0000A3FB0213D9080B469B000B445B00D31ACC
:100D1000DBB2002B08D10E4B1B68002B0CBF01234C
:100D20000023DAB20A4B1A600A20FFF769FCF4E5E7
:100D30009C00002098824242A8010020CC6000085C
:100D4000D4600008E060000804000020CDCCCCCCCA
:100D5000A482424280B483B000AF00237B60104B7A
:100D60001B6B0F4A43F0800313630D4B1B6B03F0A7
:100D700080037B607B6800233B60094B1B6B084A48
:100D800043F001031363064B1B6B03F001033B604D
:100D90003B6800BF0C37BD465DF8047B704700BF61
:100DA0000038024080B584B000AF786039603B689D
:100DB000C82202FB03F39B080D4AA2FB03239B08F6
:100DC0003233FB607B68052B03D07B68062B05D094
:100DD00009E0F968052000F007FA04E0F968062048
:100DE00000F002FA00BF00BF1037BD4680BD00BF53
:100DF000176CC11680B500AF5A210520FFF7D2FF4E
:100E00005A210620FFF7CEFF00BF80BD80B487B017
:100E100000AF87ED030AB8607960BB6893ED007A94
:100E2000D7ED037A77EE277ABB68C3ED007A7B684B
:100E3000D3ED007A97ED037A77EE677AC7ED057AFE
:100E40007B68FA681A60104B93ED007AD7ED037A4D
:100E500027EE277ABB68D3ED006A0C4BD3ED007AFE
:100E600066EEA77A37EE277A094BD3ED006AD7ED05
:100E7000057A66EEA77A77EE277AB0EE670A1C3716
:100E8000BD465DF8047B70470C000020BC000020CC
:100E9000C000002080B586B000AF7860634BB3F926
:100EA0000C30F92B6CDC614BB3F90C30002B67DD97
:100EB0005E4BB3F90E30F92B62DC5C4BB3F90E30AC
:100EC000002B5DDD7B685B00013B584A32F9133033
:100ED0001A46574B1A607B685B00544A32F913304C
:100EE0001A46544B1A60514BB3F90C301A46524B08
:100EF0001A604E4BB3F90E301A46504B1A604C4BE9
:100F00001A684D4B1B68D31A7B614A4B1A684B4BCE
:100F10001B68D31A3B617B6907EE903AF8EEE77ADB
:100F200047494848B0EE670AFFF770FF87ED030AAC
:100F30003B6907EE903AF8EEE77A43494348B0EE52
:100F4000670AFFF763FF87ED020A414B93ED017AD1
:100F5000D7ED037A77EE677A3D4BC3ED017A3C4BD0
:100F600093ED007AD7ED027A77EE677A384BC3EDCE
:100F7000007A384800F078F8354800F075F83EE01F
:100F8000354BB3F90230F92B09DC334BB3F902309E
:100F9000002B04DD254BB3F90E30FA2B0EDC2E4B63
:100FA000B3F90030F92B2ADC2B4BB3F90030002BBE
:100FB00025DD1E4BB3F90C30FA2B20DD274B1A68C8
:100FC000274B1B689A421AD1244B1B680133234AD2
:100FD0001360244B1B68002B0CBF01230023DAB2E3
:100FE000204B1A604FF4FA70FFF70AFB1D4B1B6889
:100FF000002B0CBF01230023DAB21A4B1A600B4BF3
:10100000B3F90C20144B1A80084BB3F90E20124B85
:101010005A80124B1B68124A13604FF4FA70FFF7A4
:10102000EFFA00BF1837BD4680BD00BF080300209F
:10103000AC000020B0000020B4000020B800002068
:10104000CC000020C4000020D0000020C8000020F8
:101050000400002008000020A8000020A0000020BC
:10106000A4000020A082424280B483B000AF786028
:101070007B68D3ED007A9FED0E7AF4EEC77AF1EE3D
:1010800010FA02DD7B680B4A1A607B68D3ED007AA8
:10109000F5EEC07AF1EE10FA00D403E07B684FF071
:1010A00000021A6000BF0C37BD465DF8047B704734
:1010B000000034430000344380B582B000AF0346E3
:1010C0000A46FB801346BB801F4B204A1A60BB8830
:1010D0001D4A53601C4B00229A60FB881A4AD36059
:1010E000194B00221A61184802F07CFA184B602252
:1010F0001A60FB885B089BB21A46154B5A60144B6A
:1011000000229A60002212490F4802F08BFC114B1A
:1011100060221A60FB885B089BB21A460D4B5A602E
:101120000C4B00229A6004220A49074802F07AFC1C
:101130000021054802F0A6FA0421034802F0A2FAB1
:1011400000BF0837BD4680BDD400002000400140EC
:101150001C0100203801002080B58AB000AF786003
:1011600000233B611E4B5B6C1D4A43F48033536488
:101170001B4B5B6C03F480333B613B690023FB60DA
:10118000174B1B6B164A43F010031363144B1B6B76
:1011900003F01003FB60FB6820237B610223BB612B
:1011A0000123FB6103233B6203237B6207F11403EA
:1011B00019460C4801F0C4FA40237B610223BB614D
:1011C0000123FB6103233B6203237B6207F11403CA
:1011D0001946044801F0B4FA00BF2837BD4680BD67
:1011E000003802400010024080B483B000AF786045
:1011F00039607B68052B03D07B68062B04D007E0A1
:10120000064A3B68536303E0044A3B68936300BFAC
:1012100000BF0C37BD465DF8047B704700400140BD
:1012200080B483B000AF00237B60104B5B6C0F4A2F
:1012300043F4804353640D4B5B6C03F480437B6049
:101240007B6800233B60094B1B6C084A43F08053CA
:101250001364064B1B6C03F080533B603B6800BF7C
:101260000C37BD465DF8047B704700BF0038024074
:1012700080B400AF00BFFDE780B400AF00BFFDE762
:1012800080B400AF00BFFDE780B400AF00BFFDE752
:1012900080B400AF00BFFDE780B400AF00BFBD4623
:1012A0005DF8047B704780B400AF00BFBD465DF8B9
:1012B000047B704780B400AF00BFBD465DF8047B7F
:1012C000704780B500AF01F0BFF800BF80BD80B5AA
:1012D00086B000AFF860B9607A6000237B610AE0F5
:1012E000AFF300800146BB685A1CBA60CAB21A70DC
:1012F0007B6901337B617A697B689A42F0DB7B68AA
:1013000018461837BD4680BD80B586B000AFF8607E
:10131000B9607A6000237B6109E0BB685A1CBA603F
:101320001B781846AFF300807B6901337B617A69D3
:101330007B689A42F1DB7B6818461837BD4680BD52
:1013400080B483B000AF78604FF0FF3318460C379D
:10135000BD465DF8047B704780B483B000AF786011
:1013600039603B684FF400525A60002318460C372E
:10137000BD465DF8047B704780B483B000AF7860F1
:10138000012318460C37BD465DF8047B704780B4D6
:1013900085B000AFF860B9607A6000231846143752
:1013A000BD465DF8047B704780B598B000AFF8602B
:1013B000B9607A603B60002387F85F3000237B616F
:1013C000324B1B6C314A43F0805313642F4B1B6C20
:1013D00003F080537B617B6900233B612C4B1B68CE
:1013E0002B4A43F480431360294B1B6803F480436A
:1013F0003B613B690123FB624FF480333B63022373
:101400007B644FF48003BB64FB68FB64BB683B6593
:101410007B687B653B68BB6507F12C03184601F0D0
:1014200045FB034687F85F3097F85F30002B01D00B
:1014300000BFFDE70F23BB610223FB6100233B627A
:101440004FF4A0537B624FF48053BB6207F1180343
:101450000521184601F0A2FD034687F85F3097F892
:101460005F30002B01D000BFFDE701F00DF803460F
:1014700041F20102934205D1064B1B68054A43F431
:101480008073136000BF6037BD4680BD00380240E6
:1014900000700040003C024080B400AF064BD3F81F
:1014A0008830054A43F47003C2F8883000BFBD4657
:1014B0005DF8047B704700BF00ED00E080B483B0AE
:1014C00000AF0346FB80044AFB88138000BF0C3743
:1014D000BD465DF8047B70477E00006C80B483B02D
:1014E00000AF0346FB80044AFB88538000BF0C37E3
:1014F000BD465DF8047B70477E00006C80B582B00D
:1015000000AF03460A46FB801346BB80FB881846A3
:10151000FFF7D4FFBB881846FFF7E0FF00BF08378E
:10152000BD4680BD80B483B000AF0346FB80044A53
:10153000FB88538000BF0C37BD465DF8047B7047C5
:101540007E00006C80B582B000AF0346FB71114A8B
:10155000FB799371FB79002B0CD100213620FFF72A
:10156000CDFF0C4B4FF448725A800A4B4FF4F07287
:101570001A800BE068213620FFF7C0FF054B4FF4BF
:10158000F0725A80034B4FF448721A8000BF08373C
:10159000BD4680BDA801002090B583B000AF0446D1
:1015A000084611461A462346FB800346BB800B467D
:1015B0007B8013463B802A20FFF780FFFB881B0AB5
:1015C0009BB21846FFF78AFFFB88DBB29BB2184636
:1015D000FFF784FF7B881B0A9BB21846FFF77EFF4C
:1015E0007B88DBB29BB21846FFF778FF2B20FFF712
:1015F00065FFBB881B0A9BB21846FFF76FFFBB88CD
:10160000DBB29BB21846FFF769FF3B881B0A9BB20F
:101610001846FFF763FF3B88DBB29BB21846FFF723
:101620005DFF2C20FFF74AFF00BF0C37BD4690BD81
:1016300080B58CB000AF78600023BB61394B9B6BE9
:10164000384A43F001039363364B9B6B03F001036D
:10165000BB61BB6900237B61324B1B6B314A43F09A
:10166000080313632F4B1B6B03F008037B617B693B
:1016700000233B612B4B1B6B2A4A43F0100313637F
:10168000284B1B6B03F010033B613B690023FB609D
:10169000244B1B6B234A43F020031363214B1B6B2A
:1016A00003F02003FB60FB680023BB601D4B1B6B3A
:1016B0001C4A43F0400313631A4B1B6B03F04003B7
:1016C000BB60BB684CF23373FB6102233B620123B6
:1016D0007B620323BB620C23FB6207F11C031946E8
:1016E000114801F02DF84FF68073FB6107F11C03E0
:1016F00019460E4801F024F84FF48053FB6107F1BE
:101700001C0319460A4801F01BF84FF48053FB6193
:1017100007F11C031946074801F012F800BF3037E3
:10172000BD4680BD00380240000C0240001002405F
:10173000001402400018024080B594B000AF0023AE
:101740003B60344B1B6B334A43F002031363314B52
:101750001B6B03F002033B603B684FF40043FB63E9
:1017600001233B6401237B640323BB6407F13C0337
:101770001946294800F0E4FF284B4FF020421A6038
:10178000264B274A5A60254B06229A60234B00229B
:10179000DA60224B00221A61204B10225A611F4B43
:1017A00000229A611D4B0022DA611C4B00225A6212
:1017B0001A4B4FF480529A62184B0022DA62174B90
:1017C0004FF480421A63154B00225A63134B0022D8
:1017D0009A63124B4FF48012DA630F233B620023AB
:1017E0007B623C23BB620023BB6300233B61092374
:1017F0007B600023BB600823FB600023FB613A1D74
:1018000007F120031946054801F0E8FD00BF5037F5
:10181000BD4680BD00380240000402405401002053
:10182000040100A080B500AFFFF786FF3220FEF76D
:10183000E7FED320FFF742FEF04B5A88F04B9A8028
:10184000EE4B5A88EE4B9A80EC4B5A88EC4B9A80C0
:10185000EB4B9B881B029AB2E94B9A80E84B9A8823
:10186000E64B5B8813439AB2E54B9A80E44B9B8826
:101870001946E44803F0A2FDFF20FFF71FFEFF20FA
:10188000FFF72CFE9820FFF729FE0620FFF726FE23
:10189000BA20FFF713FE6020FFF720FEBC20FFF701
:1018A0000DFE0320FFF71AFE0E20FFF717FE0320A0
:1018B000FFF714FE6320FFF711FE0120FFF70EFE75
:1018C0000120FFF70BFE1B20FFF708FE1220FFF799
:1018D00005FE6F20FFF702FE0020FFF7FFFD00204E
:1018E000FFF7FCFD0020FFF7F9FD0120FFF7F6FDF3
:1018F0000120FFF7F3FD0320FFF7F0FD0220FFF7C3
:10190000EDFDFF20FFF7EAFDF220FFF7E7FD0120E4
:10191000FFF7E4FD0020FFF7E1FDC020FFF7DEFD4B
:10192000BD20FFF7CBFD0220FFF7D8FD1320FFF706
:10193000D5FD4520FFF7D2FD6720FFF7CFFD4520FD
:10194000FFF7CCFD6720FFF7C9FD0120FFF7C6FDBB
:101950002320FFF7C3FDBE20FFF7B0FD0120FFF7F6
:10196000BDFD2220FFF7BAFD2220FFF7B7FDDC20E6
:10197000FFF7B4FDBA20FFF7B1FD6720FFF7AEFD1A
:101980002220FFF7ABFD2220FFF7A8FD2220FFF762
:10199000A5FDC720FFF792FD6620FFF79FFDED2014
:1019A000FFF78CFD7F20FFF799FD0F20FFF796FDD5
:1019B0000020FFF793FDC020FFF780FD0320FFF715
:1019C0008DFD0B20FFF78AFD0020FFF787FDF52036
:1019D000FFF774FD2020FFF781FD4320FFF77EFD18
:1019E0000020FFF77BFDEE20FFF768FD0A20FFF7E0
:1019F00075FD1B20FFF772FD5F20FFF76FFD402094
:101A0000FFF76CFD2820FFF769FD3820FFF766FD22
:101A10000220FFF763FD2B20FFF760FD5020FFF74A
:101A20005DFD0020FFF75AFD8020FFF757FDFC20E9
:101A3000FFF744FD0820FFF751FDDF20FFF73EFDD3
:101A40000020FFF74BFD0020FFF748FD0020FFF7C7
:101A500045FD0020FFF742FD0020FFF73FFD20205D
:101A6000FFF73CFDF320FFF729FD7420FFF736FD5B
:101A7000B420FFF723FD0220FFF730FD0220FFF71F
:101A80002DFD0220FFF72AFDF720FFF717FD82202A
:101A9000FFF724FDB120FFF711FD0020FFF71EFD29
:101AA0001320FFF71BFD1320FFF718FDF220FFF7AF
:101AB00005FD4120FFF712FD0420FFF70FFD412037
:101AC000FFF70CFD2820FFF709FDC120FFF7F6FC0A
:101AD0001720FFF703FD7820FFF700FD7B20FFF7BD
:101AE000FDFC2020FFF7FAFCE020FFF7E7FC0020D8
:101AF000FFF7F4FC0220FFF7F1FC0C20FFF7EEFCEF
:101B00000F20FFF7EBFC1120FFF7E8FC1C20FFF78C
:101B1000E5FCC820FFF7E2FC0720FFF7DFFC03200D
:101B2000FFF7DCFC0820FFF7D9FC0320FFF7D6FC09
:101B30000D20FFF7D3FC0C20FFF7D0FC3120FFF77E
:101B4000CDFC2C20FFF7CAFC0020FFF7C7FCE120EA
:101B5000FFF7B4FC0020FFF7C1FC0220FFF7BEFC3A
:101B60000820FFF7BBFC0E20FFF7B8FC1220FFF7A0
:101B7000B5FC1720FFF7B2FC7C20FFF7AFFC0A2072
:101B8000FFF7ACFC0320FFF7A9FC0920FFF7A6FC38
:101B90000620FFF7A3FC0C20FFF7A0FC0C20FFF7AA
:101BA0009DFC2E20FFF79AFC2A20FFF797FC0020CF
:101BB000FFF794FC3520FFF781FC0020FFF78EFC37
:101BC0003620FFF77BFCC020FFF788FC3A20FFF7A8
:101BD00075FC5520FFF782FC1120FFF76FFC782081
:101BE000FEF70EFD2920FFF769FC0020FFF7AAFC95
:101BF0004FF6FF7000F00AF800BF05E07E00006CB1
:101C0000A8010020E860000880BD00BF80B584B056
:101C100000AF0346FB80154B1B88013B9AB2134B68
:101C20005B88013B9BB200210020FFF7B5FC00233D
:101C3000FB8111E00023BB8106E0FB881846FFF71B
:101C400071FCBB890133BB81084B5B88BA899A421E
:101C5000F3D3FB890133FB81044B1B88FA899A4239
:101C6000E8D300BF00BF1037BD4680BDA8010020EB
:101C700090B585B000AF0446084611461A46234683
:101C8000FB800346BB800B467B8013463B80FA8873
:101C90007B889A4228D8BA883B889A4224D83B88C5
:101CA0007A88B988F888FFF777FC7A88FB88D31A96
:101CB0009BB20133FB803A88BB88D31A9BB20133B5
:101CC000BB800BE0BB88FB8103E03B8C1846FFF731
:101CD00029FCFB895A1EFA81002BF6D1FB885A1E7B
:101CE000FA80002BEED100E000BF1437BD4690BD56
:101CF00080B582B000AF0346FB800B46BB80134625
:101D00007B80BB88FA88B988F888FFF745FC7B8818
:101D10001846FFF707FC00BF0837BD4680BD00002E
:101D200090B585B000AF0446084611461A462346D2
:101D3000FB800346BB800B46FB701346BB70BB8821
:101D40007B81BB78DB08DBB21A46BB7803F0070364
:101D5000DBB2002B14BF01230023DBB21344DAB241
:101D6000BB785B08DBB212FB03F37B72FB78203B92
:101D7000FB7000237B7369E0BB780C2B0BD1FA78E6
:101D8000797B384813465B0013449B0003440B44A3
:101D90001B78FB7319E0BB78102B08D1FA787B7B9A
:101DA000314912010A4413441B78FB730DE0BB78E0
:101DB000182B50D1FA78797B2C481346DB0013445A
:101DC0009B0003440B441B78FB730023BB7335E07B
:101DD00097F90F30002B07DA254B1A88B988FB8852
:101DE0001846FFF785FF0AE097F82030002B06D150
:101DF000204B1A88B988FB881846FFF779FFFB7BD0
:101E00005B00FB73BB880133BB801B4B5B88BA88CC
:101E10009A4222D2BA887B89D21ABB789A420AD1D6
:101E20007B89BB80FB880133FB80134B1B88FA88BE
:101E30009A4207D312E0BB7B0133BB73BB7B072BFA
:101E4000C6D900E000BF7B7B01337B737A7B7B7A52
:101E50009A4291D302E000BF00E000BF1437BD46B4
:101E600090BD00BF1061000884650008746B000815
:101E7000A401002014000020A801002080B485B037
:101E800000AF03460A46FB711346BB710123FB609A
:101E900004E0FA79FB6802FB03F3FB60BB795A1E8E
:101EA000BA71002BF5D1FB6818461437BD465DF8B2
:101EB000047B704790B589B002AFBA601A460346FA
:101EC000FB810B46BB811346FB710023BB750023CE
:101ED000FB7555E0FA79FB7DD31ADBB2013BDBB22F
:101EE00019460A20FFF7CAFF0246BB68B3FBF2F1AE
:101EF000284BA3FB0123DA0813469B0013445B0025
:101F0000CA1A13467B75BB7D002B1FD1FA7DFB7966
:101F1000013B9A421ADA7B7D002B15D197F82830C5
:101F20005B08DBB21A46FB7D9BB212FB03F39AB24D
:101F3000FB89134498B297F82830B989002200929F
:101F40002022FFF7EDFE18E00123BB7597F828303B
:101F50005B08DBB21A46FB7D9BB212FB03F39AB21D
:101F6000FB89134498B27B7D3033DAB297F828307E
:101F7000B98900240094FFF7D3FEFB7D0133FB7584
:101F8000FA7DFB799A42A5D300BF00BF1C37BD463E
:101F900090BD00BFCDCCCCCC90B587B002AF04468D
:101FA000084611461A462346FB800346BB800B4673
:101FB0007B8013463B80FB88FB737A88FB88134445
:101FC0007B803A88BB8813443B8024E0FA887B8876
:101FD0009A4207D3FB7BFB8097F820309AB2BB88EC
:101FE0001344BB80BA883B889A421DD27B6A1A7818
:101FF00097F82030B988F88800240094FFF790FE05
:1020000097F820305B08DBB21A46FB881344FB804C
:102010007B6A01337B627B6A1B787E2B05D87B6AE7
:102020001B781F2BD2D800E000BF00BF1437BD467D
:1020300090BD000080B582B000AF03460A46FB8029
:102040001346BB800C4B0D4A1A60BB880A4A53608A
:10205000094B00229A60FB88074AD360064B002296
:102060001A61054801F0FEF9034801F04BFA00BF80
:102070000837BD4680BD00BFB0010020000400400D
:1020800080B584B000AF78607B681B680E4A9342CD
:1020900015D10023FB600D4B1B6C0C4A43F002036F
:1020A00013640A4B1B6C03F00203FB60FB68032202
:1020B00001211D2000F0CFFA1D2000F0E8FA00BF3A
:1020C0001037BD4680BD00BF00040040003802400C
:1020D00080B500AF024801F09DFB00BF80BD00BF8E
:1020E000B001002080B485B000AF78607B680E4AF4
:1020F000934213D10D4B1B8803F48043002B0DD169
:102100000023FB6007E00A4AFB68002122F8131055
:10211000FB680133FB60FB68082BF4DD00BF14375C
:10212000BD465DF8047B7047B0010020000300202D
:102130000803002080B582B000AF7860104B114AD0
:102140001A600F4A7B6853600D4B00229A600C4B5B
:102150000022DA600A4B00221A61094B00229A61C0
:10216000074B0C225A61064801F0CFFF01220649B5
:10217000034802F017F800BF0837BD4680BD00BF16
:10218000F8010020001001400403002080B58AB04F
:1021900000AF78607B681B681D4A934234D10023EE
:1021A0003B611C4B1B6B1B4A43F001031363194B30
:1021B0001B6B03F001033B613B690023FB60154B84
:1021C0005B6C144A43F010035364124B5B6C03F0D6
:1021D0001003FB60FB684FF4C0637B610223BB61AB
:1021E0000123FB6102233B6207237B6207F1140397
:1021F0001946094800F0A4FA252000F048FA032205
:102200000321252000F027FA00BF2837BD4680BDF6
:1022100000100140003802400000024080B483B04A
:1022200000AF78607B681B682D4A934252D12D4BDA
:102230001B881BB2002B4DDB2A4B1B8803F4804309
:10224000002B26D0284B1B78062B0FD8264B1B784B
:102250000133DAB2244B1A70244B1978224B1B78C5
:102260001A4609B2224B23F8121033E01F4B1B7899
:102270000A2B0AD11C4B00221A701A4B1B8823F41C
:1022800080439AB2174B1A8024E0164B00221A8022
:1022900020E0164B1B780D2B07D1124B1B8843F403
:1022A00080439AB20F4B1A8014E00E4B1B88C3F385
:1022B0000D030E4A11780F4AD1540A4B1B88013383
:1022C0009AB2084B1A80074B1B88C72B02D9054BC3
:1022D00000221A8000BF0C37BD465DF8047B7047B2
:1022E00000100140000300201A0300200403002016
:1022F000080300203802002080B582B000AF002320
:102300007B60114801F0A4FF00237B6002E07B6842
:1023100001337B600C4802F0AFF80346202BF6D166
:1023200000237B6002E07B6801337B600122074968
:10233000054801F037FF0346002BF4D100BF00BF72
:102340000837BD4680BD00BFF8010020040300200F
:10235000DFF834D00D480E490E4A002302E0D4586D
:10236000C4500433C4188C42F9D30B4A0B4C0023DD
:1023700001E013600432A242FBD3FFF78DF803F0B3
:10238000C1F8FEF78BFA7047000002200000002021
:102390007C000020147900087C00002070040020DC
:1023A000FEE7000080B500AF0E4B1B680D4A43F4FA
:1023B000007313600B4B1B680A4A43F4806313607D
:1023C000084B1B68074A43F480731360032000F036
:1023D00037F90F2000F008F8FEF722FF0023184617
:1023E00080BD00BF003C024080B582B000AF786085
:1023F000124B1A68124B1B7819464FF47A73B3FBD1
:10240000F1F3B2FBF3F3184600F04FF90346002B4B
:1024100001D001230EE07B680F2B0AD800227968D7
:102420004FF0FF3000F017F9064A7B681360002375
:1024300000E0012318460837BD4680BD100000208B
:102440001C0000201800002080B400AF064B1B7851
:102450001A46064B1B681344044A136000BFBD466E
:102460005DF8047B704700BF1C0000201C030020A7
:1024700080B400AF034B1B681846BD465DF8047B73
:10248000704700BF1C03002080B400AF034B1B68E3
:102490001B0C1846BD465DF8047B7047002004E025
:1024A00080B485B000AF78607B6803F00703FB6001
:1024B0000C4BDB68BB60BA684FF6FF031340BB6090
:1024C000FB681A02BB68134343F0BF6343F4003355
:1024D000BB60044ABB68D36000BF1437BD465DF8DB
:1024E000047B704700ED00E080B400AF044BDB6874
:1024F0001B0A03F007031846BD465DF8047B7047CE
:1025000000ED00E080B483B000AF0346FB7197F9A3
:102510000730002B0BDBFB7903F01F02074997F90B
:1025200007305B09012000FA02F241F8232000BFC6
:102530000C37BD465DF8047B704700BF00E100E04A
:1025400080B483B000AF03463960FB7197F9073060
:10255000002B0ADB3B68DAB20C4997F9073012010D
:10256000D2B20B4483F800230AE03B68DAB2084990
:10257000FB7903F00F03043B1201D2B20B441A762D
:1025800000BF0C37BD465DF8047B704700E100E0FA
:1025900000ED00E080B489B000AFF860B9607A6007
:1025A000FB6803F00703FB61FB69C3F10703042B1E
:1025B00028BF0423BB61FB690433062B02D9FB69E6
:1025C000033B00E000237B614FF0FF32BB6902FA5E
:1025D00003F3DA43BB681A407B699A404FF0FF313E
:1025E0007B6901FA03F3D9437B680B401343184618
:1025F0002437BD465DF8047B7047000080B582B08B
:1026000000AF78607B68013BB3F1807F01D3012389
:102610000FE00A4A7B68013B53600F214FF0FF3007
:10262000FFF78EFF054B00229A60044B07221A60C9
:10263000002318460837BD4680BD00BF10E000E00B
:1026400080B582B000AF78607868FFF729FF00BFDF
:102650000837BD4680BD80B586B000AF0346B9607F
:102660007A60FB7300237B61FFF73EFF78617A6835
:10267000B9687869FFF78EFF024697F90F30114667
:102680001846FFF75DFF00BF1837BD4680BD80B517
:1026900082B000AF0346FB7197F907301846FFF789
:1026A00031FF00BF0837BD4680BD80B582B000AFA6
:1026B00078607868FFF7A2FF034618460837BD46E2
:1026C00080BD000080B483B000AF78607B68042BCD
:1026D00006D1094B1B68084A43F00403136005E068
:1026E000054B1B68044A23F00403136000BF0C373A
:1026F000BD465DF8047B704710E000E080B483B015
:1027000000AF78607B6893F83530DBB2022B04D0E1
:102710007B6880225A6501230CE07B68052283F8E0
:1027200035207B681B681A687B681B6822F00102F1
:102730001A60002318460C37BD465DF8047B7047CD
:1027400080B489B000AF7860396000237B610023DA
:102750003B610023BB610023FB616BE10122FB694C
:1027600002FA03F37B613B681B687A6913403B61A3
:102770003A697B699A4240F05A813B685B6803F092
:102780000303012B05D03B685B6803F00303022BB6
:1027900030D17B689B68BB61FB695B00032202FA56
:1027A00003F3DB43BA691340BB613B68DA68FB693A
:1027B0005B0002FA03F3BA691343BB617B68BA6931
:1027C0009A607B685B68BB610122FB6902FA03F3D4
:1027D000DB43BA691340BB613B685B681B0903F0CC
:1027E0000102FB6902FA03F3BA691343BB617B6818
:1027F000BA695A603B685B6803F00303032B17D088
:102800007B68DB68BB61FB695B00032202FA03F3B0
:10281000DB43BA691340BB613B689A68FB695B00A4
:1028200002FA03F3BA691343BB617B68BA69DA60E1
:102830003B685B6803F00303022B23D1FB69DA08D2
:102840007B68083253F82230BB61FB6903F0070351
:102850009B000F2202FA03F3DB43BA691340BB610A
:102860003B681A69FB6903F007039B0002FA03F354
:10287000BA691343BB61FB69DA087B680832B9693E
:1028800043F822107B681B68BB61FB695B00032275
:1028900002FA03F3DB43BA691340BB613B685B6830
:1028A00003F00302FB695B0002FA03F3BA69134306
:1028B000BB617B68BA691A603B685B6803F44033AC
:1028C000002B00F0B4800023FB60604B5B6C5F4A20
:1028D00043F4804353645D4B5B6C03F48043FB60C3
:1028E000FB685B4AFB699B08023352F82330BB61EB
:1028F000FB6903F003039B000F2202FA03F3DB439F
:10290000BA691340BB617B68524A93422BD07B6803
:10291000514A934225D07B68504A93421FD07B682E
:102920004F4A934219D07B684E4A934213D07B683A
:102930004D4A93420DD07B684C4A934207D07B6846
:102940004B4A934201D107230EE008230CE00623F3
:102950000AE0052308E0042306E0032304E0022341
:1029600002E0012300E00023FA6902F00302920072
:102970009340BA691343BB613549FB699B08023335
:10298000BA6941F823203B4B9B68BB613B69DB4341
:10299000BA691340BB613B685B6803F48013002B8A
:1029A00003D0BA693B691343BB61324ABB69936088
:1029B000304BDB68BB613B69DB43BA691340BB61E9
:1029C0003B685B6803F40013002B03D0BA693B69D2
:1029D0001343BB61274ABB69D360264B5B68BB616D
:1029E0003B69DB43BA691340BB613B685B6803F436
:1029F0000033002B03D0BA693B691343BB611D4A06
:102A0000BB6953601B4B1B68BB613B69DB43BA6905
:102A10001340BB613B685B6803F48033002B03D039
:102A2000BA693B691343BB61124ABB691360FB6916
:102A30000133FB61FB690F2B7FF690AE00BF00BF37
:102A40002437BD465DF8047B704700BF0038024064
:102A5000003801400000024000040240000802402B
:102A6000000C024000100240001402400018024016
:102A7000001C0240003C014080B483B000AF78608D
:102A80000B467B8013467B707B78002B03D07A88C3
:102A90007B689A6103E07B881A047B689A6100BFB7
:102AA0000C37BD465DF8047B7047000080B586B0EA
:102AB00000AF78607B68002B01D1012367E27B685F
:102AC0001B6803F00103002B75D0884B9B6803F053
:102AD0000C03042B0CD0854B9B6803F00C03082BD4
:102AE00012D1824B5B6803F48003B3F5800F0BD1E6
:102AF0007E4B1B6803F40033002B5BD07B685B6864
:102B0000002B57D1012342E27B685B68B3F5803F1D
:102B100006D1764B1B68754A43F4803313601DE081
:102B20007B685B68B3F5A02F0CD1704B1B686F4AB4
:102B300043F4802313606D4B1B686C4A43F480336D
:102B400013600BE0694B1B68684A23F48033136001
:102B5000664B1B68654A23F4802313607B685B68BF
:102B6000002B13D0FFF784FC386108E0FFF780FCEE
:102B700002463B69D31A642B01D9032307E25B4B5E
:102B80001B6803F40033002BF0D014E0FFF770FC57
:102B9000386108E0FFF76CFC02463B69D31A642BEE
:102BA00001D90323F3E1514B1B6803F40033002BDD
:102BB000F0D100E000BF7B681B6803F00203002B2C
:102BC00063D04A4B9B6803F00C03002B0BD0474BA0
:102BD0009B6803F00C03082B1CD1444B5B6803F487
:102BE0008003002B16D1414B1B6803F00203002B1E
:102BF00005D07B68DB68012B01D00123C7E13B4B8B
:102C00001B6823F0F8027B681B69DB00374913431C
:102C10000B603AE07B68DB68002B20D0344B01224C
:102C20001A60FFF725FC386108E0FFF721FC024637
:102C30003B69D31A022B01D90323A8E12B4B1B6854
:102C400003F00203002BF0D0284B1B6823F0F8029E
:102C50007B681B69DB00254913430B6015E0244B9F
:102C600000221A60FFF704FC386108E0FFF700FC5F
:102C700002463B69D31A022B01D9032387E11B4B80
:102C80001B6803F00203002BF0D17B681B6803F084
:102C90000803002B36D07B685B69002B16D0154BE0
:102CA00001221A60FFF7E4FB386108E0FFF7E0FB60
:102CB00002463B69D31A022B01D9032367E10B4B70
:102CC0005B6F03F00203002BF0D01BE0094B0022E6
:102CD0001A60FFF7CDFB38610EE0FFF7C9FB024633
:102CE0003B69D31A022B07D9032350E10038024075
:102CF00000004742800E4742884B5B6F03F002039F
:102D0000002BEAD17B681B6803F00403002B00F062
:102D100097800023FB75814B1B6C03F08053002BC5
:102D20000FD10023BB607D4B1B6C7C4A43F080536A
:102D300013647A4B1B6C03F08053BB60BB680123A8
:102D4000FB75774B1B6803F48073002B18D1744B11
:102D50001B68734A43F480731360FFF789FB386183
:102D600008E0FFF785FB02463B69D31A022B01D925
:102D700003230CE16A4B1B6803F48073002BF0D033
:102D80007B689B68012B06D1644B1B6F634A43F041
:102D9000010313671CE07B689B68052B0CD15F4B1C
:102DA0001B6F5E4A43F0040313675C4B1B6F5B4A67
:102DB00043F0010313670BE0584B1B6F574A23F096
:102DC00001031367554B1B6F544A23F00403136729
:102DD0007B689B68002B15D0FFF74AFB38610AE03F
:102DE000FFF746FB02463B69D31A41F28832934211
:102DF00001D90323CBE0494B1B6F03F00203002BE7
:102E0000EED014E0FFF734FB38610AE0FFF730FB47
:102E100002463B69D31A41F28832934201D9032317
:102E2000B5E03E4B1B6F03F00203002BEED1FB7DA0
:102E3000012B05D1394B1B6C384A23F080531364A6
:102E40007B689B69002B00F0A180344B9B6803F0EA
:102E50000C03082B5CD07B689B69022B41D1314B62
:102E600000221A60FFF704FB386108E0FFF700FB5F
:102E700002463B69D31A022B01D9032387E0274B73
:102E80001B6803F00073002BF0D17B68DA697B6864
:102E90001B6A1A437B685B6A9B011A437B689B6AC7
:102EA0005B08013B1B041A437B68DB6A1B061B495A
:102EB00013434B601B4B01221A60FFF7D9FA3861AC
:102EC00008E0FFF7D5FA02463B69D31A022B01D975
:102ED00003235CE0114B1B6803F00073002BF0D060
:102EE00054E0104B00221A60FFF7C2FA386108E084
:102EF000FFF7BEFA02463B69D31A022B01D903231E
:102F000045E0064B1B6803F00073002BF0D13DE059
:102F10007B689B69012B07D1012338E00038024010
:102F200000700040600047421B4B5B68FB607B68A1
:102F30009B69012B28D0FB6803F480027B68DB6966
:102F40009A4221D1FB6803F03F027B681B6A9A42D8
:102F50001AD1FA6847F6C07313407A68526A920130
:102F6000934211D1FB6803F440327B689B6A5B0893
:102F7000013B1B049A4207D1FB6803F070627B6837
:102F8000DB6A1B069A4201D0012300E000231846A9
:102F90001837BD4680BD00BF0038024080B584B000
:102FA00000AF786039607B68002B01D10123CCE051
:102FB000684B1B6803F007033A689A420CD9654BCB
:102FC0003A68D2B21A70634B1B6803F007033A6881
:102FD0009A4201D00123B8E07B681B6803F002032A
:102FE000002B20D07B681B6803F00403002B05D066
:102FF000594B9B68584A43F4E05393607B681B68C5
:1030000003F00803002B05D0534B9B68524A43F44E
:1030100060439360504B9B6823F0F0027B689B6891
:103020004D4913438B607B681B6803F00103002B41
:1030300044D07B685B68012B07D1474B1B6803F4C6
:103040000033002B19D101237FE07B685B68022BE2
:1030500003D07B685B68032B07D13F4B1B6803F0F1
:103060000073002B09D101236FE03B4B1B6803F079
:103070000203002B01D1012367E0374B9B6823F04B
:1030800003027B685B68344913438B60FFF7F0F9F8
:10309000F8600AE0FFF7ECF90246FB68D31A41F248
:1030A0008832934201D903234FE02B4B9B6803F0F6
:1030B0000C027B685B689B009A42EBD1254B1B6836
:1030C00003F007033A689A420CD2224B3A68D2B214
:1030D0001A70204B1B6803F007033A689A4201D02C
:1030E000012332E07B681B6803F00403002B08D047
:1030F000194B9B6823F4E0527B68DB681649134345
:103100008B607B681B6803F00803002B09D0124B0F
:103110009B6823F460427B681B69DB000E49134304
:103120008B6000F021F802460B4B9B681B0903F0F3
:103130000F030A49CB5C22FA03F3094A1360094BD7
:103140001B681846FFF750F9002318461037BD4694
:1031500080BD00BF003C024000380240F86000081B
:1031600010000020180000202DE9B04F94B000AFEF
:1031700000237B640023FB6400233B640023BB64C7
:10318000794B9B6803F00C03082B0DD0082B00F241
:10319000E180002B02D0042B03D0DBE0734BBB6437
:1031A000DBE0734BBB64D8E06F4B5B6803F03F031D
:1031B0007B646D4B5B6803F48003002B63D06A4B28
:1031C0005B689B090022BB63FA63BB6BC3F3080314
:1031D0003B6300237B63D7E90C4522462B464FF027
:1031E00000004FF00001590141EAD261500102464E
:1031F0000B462146511A3961294663EB01037B6175
:103200004FF000024FF00003D7E904AB59468B01A1
:10321000514643EA916351468A015146B2EB010897
:10322000594663EB01094FF000024FF000034FEAEB
:10323000C90343EA58734FEAC802904699462346A9
:1032400018EB0303BB602B4649EB0303FB604FF015
:1032500000024FF00003D7E9024529464B02214600
:1032600043EAD15321464A02104619467B6C00229C
:10327000BB62FA62D7E90A23FCF7FAFF02460B4663
:103280001346FB6458E0384B5B689B0900221846E4
:103290001146C0F308033B6200237B62D7E908892B
:1032A00042464B464FF000004FF00001590141EA01
:1032B000D261500102460B464146B2EB010A494633
:1032C00063EB010B4FF000024FF000034FEA8B134A
:1032D00043EA9A634FEA8A12B2EB0A0463EB0B05E6
:1032E0004FF000024FF00003EB0043EA5473E2009A
:1032F00014461D464346E3183B604B4645EB03032B
:103300007B604FF000024FF00003D7E900452946EB
:103310008B02214643EA915321468A021046194600
:103320007B6C0022BB61FA61D7E90623FCF7A0FFA2
:1033300002460B461346FB640B4B5B681B0C03F009
:10334000030301335B003B64FA6C3B6CB2FBF3F3A9
:10335000BB6402E0054BBB6400BFBB6C1846503732
:10336000BD46BDE8B08F00BF003802400024F40025
:1033700000127A0080B400AF034B1B681846BD46AC
:103380005DF8047B704700BF1000002080B500AFDF
:10339000FFF7F0FF0246054B9B689B0A03F007030B
:1033A0000349CB5C22FA03F3184680BD0038024083
:1033B0000861000880B500AFFFF7DCFF0246054B4F
:1033C0009B685B0B03F007030349CB5C22FA03F312
:1033D000184680BD003802400861000880B584B0FE
:1033E00000AFF860B9607A60FB68002B01D101235F
:1033F00034E0FB6893F84930DBB2002B06D1FB6860
:10340000002283F84820F868FEF712F9FB681A6872
:10341000FB6808331946104601F03EFEFB68186849
:10342000FB689B681A46B96801F088FEFB6858681B
:10343000FB689A68FB681B6B796801F0BDFEFB684E
:103440001B68FA68926853F82210FB681B68FA68D8
:10345000926841F0010143F822100023184610370A
:10346000BD4680BD80B582B000AF78607B68002B20
:1034700001D1012341E07B6893F83D30DBB2002BA2
:1034800006D17B68002283F83C207868FEF7F8FDBF
:103490007B68022283F83D207B681A687B680433CE
:1034A0001946104600F0A8FB7B68012283F84620ED
:1034B0007B68012283F83E207B68012283F83F204D
:1034C0007B68012283F840207B68012283F8412039
:1034D0007B68012283F842207B68012283F8432025
:1034E0007B68012283F844207B68012283F8452011
:1034F0007B68012283F83D20002318460837BD462B
:1035000080BD000080B485B000AF78607B6893F820
:103510003D30DBB2012B01D001234EE07B6802225B
:1035200083F83D207B681B68DA687B681B6842F083
:103530000102DA607B681B68234A934222D07B68D1
:103540001B68B3F1804F1DD07B681B681F4A9342F4
:1035500018D07B681B681E4A934213D07B681B6897
:103560001C4A93420ED07B681B681B4A934209D0C9
:103570007B681B68194A934204D07B681B68184A11
:10358000934211D17B681B689B6803F00703FB60C3
:10359000FB68062B10D07B681B681A687B681B6869
:1035A00042F001021A6007E07B681B681A687B68BA
:1035B0001B6842F001021A60002318461437BD460A
:1035C0005DF8047B704700BF00000140000400402C
:1035D00000080040000C0040000401400040014091
:1035E0000018004080B582B000AF78607B68002B87
:1035F00001D1012341E07B6893F83D30DBB2002B21
:1036000006D17B68002283F83C207868FDF7A4FD92
:103610007B68022283F83D207B681A687B6804334C
:103620001946104600F0E8FA7B68012283F846202C
:103630007B68012283F83E207B68012283F83F20CB
:103640007B68012283F840207B68012283F84120B7
:103650007B68012283F842207B68012283F84320A3
:103660007B68012283F844207B68012283F845208F
:103670007B68012283F83D20002318460837BD46A9
:1036800080BD000080B584B000AF786039603B68D1
:10369000002B09D17B6893F83E30DBB2012B14BFBD
:1036A00001230023DBB222E03B68042B09D17B68B5
:1036B00093F83F30DBB2012B14BF01230023DBB2B0
:1036C00015E03B68082B09D17B6893F84030DBB2EA
:1036D000012B14BF01230023DBB208E07B6893F8C1
:1036E0004130DBB2012B14BF01230023DBB2002BDE
:1036F00001D001237CE03B68002B04D17B680222CF
:1037000083F83E2013E03B68042B04D17B6802223F
:1037100083F83F200BE03B68082B04D17B68022232
:1037200083F8402003E07B68022283F841207B6815
:103730001B6801223968184600F0AEFC7B681B68E4
:103740002D4A934204D07B681B682C4A934201D1D6
:10375000012300E00023002B07D07B681B685A6C14
:103760007B681B6842F400425A647B681B68224AEB
:10377000934222D07B681B68B3F1804F1DD07B68D9
:103780001B681F4A934218D07B681B681D4A9342EE
:1037900013D07B681B681C4A93420ED07B681B6861
:1037A000164A934209D07B681B68184A934204D09A
:1037B0007B681B68164A934211D17B681B689B6823
:1037C00003F00703FB60FB68062B10D07B681B68C7
:1037D0001A687B681B6842F001021A6007E07B6888
:1037E0001B681A687B681B6842F001021A6000239C
:1037F00018461037BD4680BD00000140000401405E
:103800000004004000080040000C0040004001405F
:103810000018004080B582B000AF78607B681B68FC
:103820001B6903F00203022B22D17B681B68DB6853
:1038300003F00203022B1BD17B681B686FF00202AE
:103840001A617B6801221A777B681B689B6903F009
:103850000303002B03D0786800F0B0F905E0786826
:1038600000F0A2F9786800F0B3F97B6800221A77BB
:103870007B681B681B6903F00403042B22D17B685F
:103880001B68DB6803F00403042B1BD17B681B68F7
:103890006FF004021A617B6802221A777B681B684A
:1038A0009B6903F44073002B03D0786800F086F91D
:1038B00005E0786800F078F9786800F089F97B68AD
:1038C00000221A777B681B681B6903F00803082B2A
:1038D00022D17B681B68DB6803F00803082B1BD12F
:1038E0007B681B686FF008021A617B6804221A77F4
:1038F0007B681B68DB6903F00303002B03D0786847
:1039000000F05CF905E0786800F04EF9786800F0A6
:103910005FF97B6800221A777B681B681B6903F0DC
:103920001003102B22D17B681B68DB6803F01003A7
:10393000102B1BD17B681B686FF010021A617B682B
:1039400008221A777B681B68DB6903F44073002B3D
:1039500003D0786800F032F905E0786800F024F9C7
:10396000786800F035F97B6800221A777B681B685D
:103970001B6903F00103012B0ED17B681B68DB6818
:1039800003F00103012B07D17B681B686FF0010274
:103990001A617868FEF7A6FB7B681B681B6903F059
:1039A0008003802B0ED17B681B68DB6803F08003EB
:1039B000802B07D17B681B686FF080021A617868E2
:1039C00000F099FB7B681B681B6903F04003402BE8
:1039D0000ED17B681B68DB6803F04003402B07D1E6
:1039E0007B681B686FF040021A61786800F0FAF893
:1039F0007B681B681B6903F02003202B0ED17B68BA
:103A00001B68DB6803F02003202B07D17B681B6851
:103A10006FF020021A61786800F063FB00BF08377E
:103A2000BD4680BD80B586B000AFF860B9607A60F1
:103A30000023FB75FB6893F83C30012B01D1022376
:103A4000AEE0FB68012283F83C207B680C2B00F27F
:103A50009F8001A252F823F08D3A0008913B0008A4
:103A6000913B0008913B0008CD3A0008913B0008CB
:103A7000913B0008913B00080F3B0008913B000878
:103A8000913B0008913B00084F3B0008FB681B6816
:103A9000B968184600F050F9FB681B689A69FB6822
:103AA0001B6842F008029A61FB681B689A69FB6810
:103AB0001B6822F004029A61FB681B689969BB6865
:103AC0001A69FB681B680A439A6164E0FB681B681B
:103AD000B968184600F0A0F9FB681B689A69FB6892
:103AE0001B6842F400629A61FB681B689A69FB6874
:103AF0001B6822F480629A61FB681B689969BB6845
:103B00001B691A02FB681B680A439A6143E0FB6861
:103B10001B68B968184600F0F5F9FB681B68DA699C
:103B2000FB681B6842F00802DA61FB681B68DA690F
:103B3000FB681B6822F00402DA61FB681B68D96924
:103B4000BB681A69FB681B680A43DA6123E0FB68FB
:103B50001B68B968184600F049FAFB681B68DA6907
:103B6000FB681B6842F40062DA61FB681B68DA6973
:103B7000FB681B6822F48062DA61FB681B68D96904
:103B8000BB681B691A02FB681B680A43DA6102E022
:103B90000123FB7500BFFB68002283F83C20FB7DFE
:103BA00018461837BD4680BD80B483B000AF78603A
:103BB00000BF0C37BD465DF8047B704780B483B00E
:103BC00000AF786000BF0C37BD465DF8047B7047DE
:103BD00080B483B000AF786000BF0C37BD465DF89D
:103BE000047B704780B483B000AF786000BF0C37AF
:103BF000BD465DF8047B704780B485B000AF786047
:103C000039607B681B68FB607B68404A934213D035
:103C10007B68B3F1804F0FD07B683D4A93420BD055
:103C20007B683C4A934207D07B683B4A934203D06F
:103C30007B683A4A934208D1FB6823F07003FB602B
:103C40003B685B68FA681343FB607B682F4A9342CA
:103C50002BD07B68B3F1804F27D07B682C4A9342EE
:103C600023D07B682B4A93421FD07B682A4A934219
:103C70001BD07B68294A934217D07B68284A93421D
:103C800013D07B68274A93420FD07B68264A934221
:103C90000BD07B68254A934207D07B68244A934225
:103CA00003D07B68234A934208D1FB6823F4407316
:103CB000FB603B68DB68FA681343FB60FB6823F03A
:103CC00080023B685B691343FB607B68FA681A609B
:103CD0003B689A687B68DA623B681A687B689A621C
:103CE0007B680A4A934203D07B680C4A934203D113
:103CF0003B681A697B681A637B6801225A6100BFBE
:103D00001437BD465DF8047B704700BF00000140DA
:103D10000004004000080040000C00400004014086
:103D200000400140004401400048014000180040AC
:103D3000001C00400020004080B487B000AF7860D5
:103D400039607B681B6A23F001027B681A627B681A
:103D50001B6A7B617B685B683B617B689B69FB607E
:103D6000FB6823F07003FB60FB6823F00303FB6038
:103D70003B681B68FA681343FB607B6923F002030E
:103D80007B613B689B687A6913437B617B68204A4F
:103D9000934203D07B681F4A93420CD17B6923F086
:103DA00008037B613B68DB687A6913437B617B694D
:103DB00023F004037B617B68154A934203D07B6840
:103DC000144A934211D13B6923F480733B613B69F0
:103DD00023F400733B613B685B693A6913433B61C1
:103DE0003B689B693A6913433B617B683A695A6057
:103DF0007B68FA689A613B685A687B685A637B689B
:103E00007A691A6200BF1C37BD465DF8047B7047B3
:103E1000000001400004014080B487B000AF78602A
:103E200039607B681B6A23F010027B681A627B682A
:103E30001B6A7B617B685B683B617B689B69FB609D
:103E4000FB6823F4E043FB60FB6823F44073FB60F2
:103E50003B681B681B02FA681343FB607B6923F015
:103E600020037B613B689B681B017A6913437B617C
:103E70007B68224A934203D07B68214A93420DD14A
:103E80007B6923F080037B613B68DB681B017A69F7
:103E900013437B617B6923F040037B617B68174A96
:103EA000934203D07B68164A934213D13B6923F4B3
:103EB00080633B613B6923F400633B613B685B6962
:103EC0009B003A6913433B613B689B699B003A69DD
:103ED00013433B617B683A695A607B68FA689A6170
:103EE0003B685A687B689A637B687A691A6200BF8C
:103EF0001C37BD465DF8047B704700BF00000140E1
:103F00000004014080B487B000AF786039607B68FE
:103F10001B6A23F480727B681A627B681B6A7B6170
:103F20007B685B683B617B68DB69FB60FB6823F057
:103F30007003FB60FB6823F00303FB603B681B68B6
:103F4000FA681343FB607B6923F400737B613B6871
:103F50009B681B027A6913437B617B68214A934209
:103F600003D07B68204A93420DD17B6923F4006320
:103F70007B613B68DB681B027A6913437B617B6969
:103F800023F480637B617B68164A934203D07B688D
:103F9000154A934213D13B6923F480533B613B693B
:103FA00023F400533B613B685B691B013A6913438F
:103FB0003B613B689B691B013A6913433B617B682A
:103FC0003A695A607B68FA68DA613B685A687B68CC
:103FD000DA637B687A691A6200BF1C37BD465DF8F8
:103FE000047B7047000001400004014080B487B0AA
:103FF00000AF786039607B681B6A23F480527B686D
:104000001A627B681B6A3B617B685B687B617B68CB
:10401000DB69FB60FB6823F4E043FB60FB6823F48F
:104020004073FB603B681B681B02FA681343FB602C
:104030003B6923F400533B613B689B681B033A696F
:1040400013433B617B68124A934203D07B68114A59
:10405000934209D17B6923F480437B613B685B69B0
:104060009B017A6913437B617B687A695A607B683C
:10407000FA68DA613B685A687B681A647B683A6957
:104080001A6200BF1C37BD465DF8047B704700BF55
:10409000000001400004014080B487B000AFF86028
:1040A000B9607A60BB6803F01F03012202FA03F3D0
:1040B0007B61FB681A6A7B69DB431A40FB681A6202
:1040C000FB681A6ABB6803F01F03796801FA03F3FF
:1040D0001A43FB681A6200BF1C37BD465DF8047BBB
:1040E000704780B483B000AF786000BF0C37BD4626
:1040F0005DF8047B704780B483B000AF786000BF88
:104100000C37BD465DF8047B704780B582B000AFC8
:1041100078607B68002B01D101233FE07B6893F836
:104120003930DBB2002B06D17B68002283F83820BF
:104130007868FEF72BF87B68242283F839207B68A7
:104140001B68DA687B681B6822F40052DA607868C2
:1041500000F0D2FA7B681B681A697B681B6822F43E
:1041600090421A617B681B685A697B681B6822F061
:104170002A025A617B681B68DA687B681B6842F414
:104180000052DA607B680022DA637B68202283F8C1
:1041900039207B68202283F83A200023184608370C
:1041A000BD4680BD80B485B000AFF860B9601346ED
:1041B000FB80FB6893F83A30DBB2202B40D1BB6820
:1041C000002B02D0FB88002B01D1012339E0FB68D2
:1041D00093F83830012B01D1022332E0FB68012231
:1041E00083F83820FB68BA689A62FB68FA889A8577
:1041F000FB68FA88DA85FB680022DA63FB68222212
:1042000083F83A20FB68002283F83820FB681B689B
:10421000DA68FB681B6842F48072DA60FB681B682E
:104220005A69FB681B6842F001025A61FB681B680F
:10423000DA68FB681B6842F02002DA60002300E0C5
:10424000022318461437BD465DF8047B7047000012
:1042500080B588B000AF78607B681B681B68FB6125
:104260007B681B68DB68BB617B681B685B697B6183
:1042700000233B610023FB60FB6903F00F033B61FC
:104280003B69002B0DD1FB6903F02003002B08D004
:10429000BB6903F02003002B03D0786800F0AAF973
:1042A000D0E03B69002B00F0B0807B6903F0010394
:1042B000002B05D1BB6903F49073002B00F0A5809F
:1042C000FB6903F00103002B0AD0BB6903F4807380
:1042D000002B05D07B68DB6B43F001027B68DA635F
:1042E000FB6903F00403002B0AD07B6903F0010390
:1042F000002B05D07B68DB6B43F002027B68DA633E
:10430000FB6903F00203002B0AD07B6903F0010371
:10431000002B05D07B68DB6B43F004027B68DA631B
:10432000FB6903F00803002B0FD0BB6903F02003E7
:10433000002B04D17B6903F00103002B05D07B68BF
:10434000DB6B43F008027B68DA637B68DB6B002B76
:1043500077D0FB6903F02003002B07D0BB6903F083
:104360002003002B02D0786800F044F97B681B68BA
:104370005B6903F04003402B0CBF01230023DBB239
:10438000FB607B68DB6B03F00803002B02D1FB684A
:10439000002B31D0786800F08DF87B681B685B6972
:1043A00003F04003402B23D17B681B685A697B686C
:1043B0001B6822F040025A617B685B6B002B13D0B4
:1043C0007B685B6B214A1A657B685B6B1846FEF75E
:1043D00095F90346002B16D07B685B6B1B6D7A68E2
:1043E000526B104698470EE0786800F03BF80AE000
:1043F000786800F037F806E0786800F033F87B68FA
:104400000022DA631DE000BF1BE0FB6903F08003BC
:10441000002B08D0BB6903F08003002B03D0786821
:1044200000F07AF80EE0FB6903F04003002B09D09E
:10443000BB6903F04003002B04D0786800F0C2F899
:1044400000E000BF2037BD4680BD00BFF14400083A
:1044500080B483B000AF786000BF0C37BD465DF814
:10446000047B704780B483B000AF786000BF0C3726
:10447000BD465DF8047B704780B485B000AF7860BE
:104480000023FB600023BB607B6893F83930DBB20C
:10449000FB607B6893F83A30DBB2BB60FB68DAB252
:1044A000BB68DBB21343DBB218461437BD465DF878
:1044B000047B704780B483B000AF78607B681B6872
:1044C000DA687B681B6822F49072DA607B681B688C
:1044D0005A697B681B6822F001025A617B682022BE
:1044E00083F83A2000BF0C37BD465DF8047B704767
:1044F00080B584B000AF78607B689B6BFB60FB6825
:104500000022DA85FB680022DA84F868FFF7AAFF48
:1045100000BF1037BD4680BD80B485B000AF786065
:104520007B6893F83930DBB2212B44D17B689B68E0
:10453000B3F5805F1AD17B681B6AFB60FB681B8840
:104540001A467B681B68C2F308025A607B681B69C5
:10455000002B05D17B681B6A9A1C7B681A620EE0EF
:104560007B681B6A5A1C7B681A6208E07B681B6ABE
:10457000591C7A6811621A787B681B685A607B68DC
:10458000DB8C9BB2013B9BB27A681946D184002B2D
:104590000FD17B681B68DA687B681B6822F0800299
:1045A000DA607B681B68DA687B681B6842F040024F
:1045B000DA60002300E0022318461437BD465DF898
:1045C000047B704780B582B000AF78607B681B6861
:1045D000DA687B681B6822F04002DA607B68202280
:1045E00083F839207868FFF733FF0023184608372F
:1045F000BD4680BD80B584B000AF78607B6893F81D
:104600003A30DBB2222B71D17B689B68B3F5805FB7
:1046100023D17B689B6AFB607B681B69002B0ED1F2
:104620007B681B685B689BB2C3F308039AB2FB68A4
:104630001A807B689B6A9A1C7B689A6229E07B6877
:104640001B685B689BB2DBB29AB2FB681A807B681E
:104650009B6A5A1C7B689A621BE07B681B69002B73
:104660000AD17B681B6858687B689B6A591C7A680A
:104670009162C2B21A700CE07B681B685B68DAB2A8
:104680007B689B6A581C7968886202F07F02D2B20C
:104690001A707B68DB8D9BB2013B9BB27A6819462E
:1046A000D185002B20D17B681B68DA687B681B688A
:1046B00022F02002DA607B681B68DA687B681B687E
:1046C00022F48072DA607B681B685A697B681B6819
:1046D00022F001025A617B68202283F83A20786830
:1046E000FDF79CFD002302E0002300E002231846B2
:1046F0001037BD4680BD00002DE9B04FADF5027DFD
:1047000000AFC7F8FC01D7F8FC311B681B6923F424
:104710004050D7F8FC31D968D7F8FC311A6840EA24
:1047200001031361D7F8FC319A68D7F8FC311B6993
:104730001A43D7F8FC315B691A43D7F8FC31DB69BF
:104740001343C7F80432D7F8FC311B68DB6823F445
:10475000164121F00C01D7F8FC311A68D7F8043261
:104760000B43D360D7F8FC311B685B6923F44070BE
:10477000D7F8FC319969D7F8FC311A6840EA01038F
:104780005361D7F8FC31DB69B3F5004F40F04A8242
:10479000D7F8FC311A68964B9A4206D0D7F8FC310C
:1047A0001A68944B9A4240F02981FEF703FEC7F83D
:1047B0000002D7F800320022C7F8F031C7F8F42120
:1047C000D7E97C4522462B469118C7F8D0105B41AB
:1047D000C7F8D430D7E9342321465118C7F8C81098
:1047E00029464B41C7F8CC304FF000024FF0000390
:1047F000D7E932894946CB00414643EA51734146E5
:10480000CA0010461946034622469B18C7F8E831ED
:104810002B460A4642EB0303C7F8EC31D7F8FC31CC
:104820005B680022C7F8E031C7F8E421D7E97812C5
:104830000B46DB18C7F8C030134642EB0303C7F83A
:10484000C430D7E93023D7E97A01FBF711FD0246DE
:104850000B46694BA3FB02235B091C01D7F800320E
:104860000022C7F8D831C7F8DC21D7E9768942465B
:104870004B469118C7F8B8105B41C7F8BC30D7E970
:104880002E2341465118C7F8B01049464B41C7F88E
:10489000B4304FF000024FF00003D7E92CAB59467B
:1048A000CB00514643EA51735146CA00104619469F
:1048B000034642469B18C7F8D0314B460A4642EBA6
:1048C0000303C7F8D431D7F8FC315B680022C7F87E
:1048D000C831C7F8CC21D7E972120B46DB18C7F8EC
:1048E000A830134642EB0303C7F8AC30D7E92A23BC
:1048F000D7E97401FBF7BCFC02460B4611463E4B60
:10490000A3FB01235B09642202FB03F3CB1ADB0048
:1049100003F13202384BA3FB02235B095B0003F473
:10492000F8731C44D7F800320022C7F8C031C7F82A
:10493000C421D7E9708942464B469118C7F8A010A8
:104940005B41C7F8A430D7E9282341465118C7F87E
:10495000981049464B41C7F89C304FF000024FF089
:104960000003D7E926AB5946CB00514643EA5173C1
:104970005146CA0010461946034642469B18C7F8DE
:10498000B8314B460A4642EB0303C7F8BC31D7F8AF
:10499000FC315B680022C7F8B031C7F8B421D7E911
:1049A0006C120B46DB18C7F89030134642EB03033A
:1049B000C7F89430D7E92423D7E96E01FBF758FCF8
:1049C00002460B460C4BA3FB02135B09642101FB5F
:1049D00003F3D31ADB003233074AA2FB03235B093C
:1049E00003F00702D7F8FC311B6822449A604AE3BF
:1049F00000100140001401401F85EB51FEF7C6FC7A
:104A0000C7F80002D7F800320022C7F8A831C7F86B
:104A1000AC21D7E96A4522462B469118C7F8881081
:104A20005B41C7F88C30D7E92223214612EB010AFB
:104A3000294643EB010B4FF000024FF000034FEA11
:104A4000CB0343EA5A734FEACA0292469B46234677
:104A50001AEB0303C7F8A0312B464BEB0303C7F84F
:104A6000A431D7F8FC315B680022C7F89831C7F849
:104A70009C21D7E966120B46DB18C7F88030134635
:104A800042EB0303C7F88430D7E92023D7E9680154
:104A9000FBF7EEFB02460B46614BA3FB02235B09CF
:104AA0001C01D7F800320022C7F89031C7F89421D2
:104AB000D7E9648942464B469118B9675B41FB6769
:104AC000D7E91E2341465118396749464B417B6758
:104AD0004FF000024FF00003D7E91CAB5946CB0062
:104AE000514643EA51735146CA00104619460346DF
:104AF00042469B18C7F888314B460A4642EB0303EF
:104B0000C7F88C31D7F8FC315B680022C7F88031D8
:104B1000C7F88421D7E960120B46DB18BB66134641
:104B200042EB0303FB66D7E91A23D7E96201FBF7DF
:104B30009FFB02460B461146394BA3FB01235B0941
:104B4000642202FB03F3CB1ADB0003F13202344B85
:104B5000A3FB02235B095B0003F4F8731C44D7F842
:104B600000320022C7F87831C7F87C21D7E95E8986
:104B700042464B46911839665B417B66D7E918235C
:104B800041465118B96549464B41FB654FF000025B
:104B90004FF00003D7E916AB5946CB00514643EA24
:104BA00051735146CA0010461946034642469B18A7
:104BB000C7F870314B460A4642EB0303C7F874311D
:104BC000D7F8FC315B680022C7F86831C7F86C2160
:104BD000D7E95A120B46DB183B65134642EB030339
:104BE0007B65D7E91423D7E95C01FBF741FB02465B
:104BF0000B460B4BA3FB02135B09642101FB03F380
:104C0000D31ADB003233064AA2FB03235B0903F00D
:104C10000702D7F8FC311B6822449A6033E200BFD8
:104C20001F85EB51D7F8FC311A688D4B9A4206D09C
:104C3000D7F8FC311A688B4B9A4240F01781FEF787
:104C4000B9FBC7F80002D7F800320022C7F860317C
:104C5000C7F86421D7E9584522462B469118B96414
:104C60005B41FB64D7E91223214612EB0108294678
:104C700043EB01094FF000024FF000034FEAC90374
:104C800043EA58734FEAC80290469946234618EB08
:104C90000303C7F858312B4649EB0303C7F85C31CF
:104CA000D7F8FC315B680022C7F85031C7F85421AF
:104CB0004FF000024FF00003D7E9544529468B001E
:104CC000214643EA917321468A00D7E95601FBF752
:104CD000CFFA02460B46644BA3FB02235B091C017F
:104CE000D7F800320022C7F84831C7F84C21D7E97D
:104CF000528942464B46911839645B417B64D7E93F
:104D0000102341465118B96349464B41FB634FF0AC
:104D100000024FF00003D7E90EAB5946CB005146D5
:104D200043EA51735146CA001046194603464246AB
:104D30009B18C7F840314B460A4642EB0303C7F8BD
:104D40004431D7F8FC315B680022C7F83831C7F826
:104D50003C214FF000024FF00003D7E94E8949464D
:104D60008B00414643EA917341468A00D7E95001DE
:104D7000FBF77EFA02460B4611463B4BA3FB012391
:104D80005B09642202FB03F3CB1A1B013233364A60
:104D9000A2FB03235B0903F0F0031C44D7F80032A5
:104DA0000022C7F83031C7F83421D7E94C89424690
:104DB0004B46911839635B417B63D7E90C2341462D
:104DC0005118B96249464B41FB624FF000024FF067
:104DD0000003D7E90AAB5946CB00514643EA517369
:104DE0005146CA0010461946034642469B18C7F86A
:104DF00028314B460A4642EB0303C7F82C31D7F85B
:104E0000FC315B680022C7F82031C7F824214FF03D
:104E100000024FF00003D7E9488949468B0041461C
:104E200043EA917341468A00D7E94A01FBF720FA29
:104E300002460B460C4BA3FB02135B09642101FBEA
:104E400003F3D31A1B013233074AA2FB03235B0986
:104E500003F00F02D7F8FC311B6822449A6012E17C
:104E600000100140001401401F85EB51FEF78EFA3F
:104E7000C7F80002D7F800320022C7F81831C7F887
:104E80001C21D7E9468942464B46911839625B415D
:104E90007B62D7E9082341465418494643EB010594
:104EA0004FF000024FF00003EB0043EA5473E200BE
:104EB00014461D464346E318C7F810314B4645EBF0
:104EC0000303C7F81431D7F8FC315B680022C7F838
:104ED0000831C7F80C214FF000024FF00003D7E96A
:104EE000424529468B00214643EA917321468A00B8
:104EF000D7E94401FBF7BCF902460B46654BA3FB1F
:104F000002235B091C01D7F800320022C7F80031E8
:104F1000C7F80421D7E9408942464B469118B96148
:104F20005B41FB61D7E90623414651183961494687
:104F30004B417B614FF000024FF00003D7E904AB17
:104F40005946CB00514643EA51735146CA001046B8
:104F50001946034642469B18C7F8F8304B460A46A6
:104F600042EB0303C7F8FC30D7F8FC315B68002242
:104F7000C7F8F030C7F8F4204FF000024FF00003FC
:104F8000D7E93C8949468B00414643EA9173414643
:104F90008A00D7E93E01FBF76BF902460B46114642
:104FA0003C4BA3FB01235B09642202FB03F3CB1AF6
:104FB0001B013233374AA2FB03235B0903F0F003E2
:104FC0001C44D7F800320022C7F8E830C7F8EC20BC
:104FD000D7E93A8942464B469118B9605B41FB607C
:104FE000D7E9022341465118396049464B417B605D
:104FF0004FF000024FF00003D7E900AB5946CB0059
:10500000514643EA51735146CA00104619460346B9
:1050100042469B18C7F8E0304B460A4642EB030372
:10502000C7F8E430D7F8FC315B680022C7F8D83005
:10503000C7F8DC204FF000024FF00003D7E93689B3
:1050400049468B00414643EA917341468A00D7E9BD
:105050003801FBF70DF902460B460E4BA3FB02137A
:105060005B09642101FB03F3D31A1B013233094AA4
:10507000A2FB03235B0903F00F02D7F8FC311B6886
:1050800022449A60FFE700BF07F50277BD46BDE8FE
:10509000B08F00BF1F85EB5180B485B000AF786042
:1050A00039600023FB603B681A687B6853F8223044
:1050B000FB60FA68204B1340FB603B685A683B6812
:1050C0009B681A433B68DB681A433B681B691A43B9
:1050D0003B685B691A433B689B691A433B68DB6921
:1050E0001A433B681B6A1A433B685B6A1A433B6876
:1050F0009B6A1A433B68DB6A1A433B68DB6B1A43C3
:105100003B681B6B1343FA681343FB603B689B6867
:10511000082B03D1FB6843F04003FB603B681A682F
:105120007B68F96843F82210002318461437BD46FF
:105130005DF8047B704700BF8000F0FF80B487B04B
:1051400000AFF860B9607A6000237B617B685A1C0D
:10515000FB6853F822307B617B6903F040437B613D
:10516000BB681A68BB685B681B011A43BB689B6815
:105170001B021A43BB68DB681B041A43BB681B692C
:10518000013B1B051A43BB685B69023B1B061A43C4
:10519000BB689B6913437A6913437B617B685A1C24
:1051A000FB68796943F82210002318461C37BD4676
:1051B0005DF8047B7047000080B487B000AFF860F2
:1051C000B9607A603B6000237B613B68B3F5804F38
:1051D00022D1FB687A6853F822307B617A69154BDB
:1051E00013407B61BB681A68BB685B681B011A438C
:1051F000BB689B681B021A43BB68DB681B041A432D
:10520000BB689B6913437A6913437B61FB687A68C7
:10521000796943F8221005E0FB687A686FF0704105
:1052200043F82210002318461C37BD465DF8047B66
:10523000704700BF0000F0CF002310B50446C0E95E
:105240000033C0E90433836081814366C281836196
:10525000194608225C3000F006F90D4B63620D4BD5
:10526000A3620D4BE3620D4B23630D4B24629C4202
:1052700006D003F16802944202D0D0339C4205D19B
:1052800004F15800BDE8104000F060B910BD00BF47
:10529000E1530008035400083B5400085F54000821
:1052A00020030020024A0349034800F069B800BF08
:1052B00020000020ED5D00083000002041680C4B0C
:1052C000994210B5044601D000F090FDA168094B49
:1052D000994202D0204600F089FDE168064B9942D0
:1052E00004D02046BDE8104000F080BD10BD00BFD6
:1052F0002003002088030020F003002010B50B4B92
:105300000B4C0C4A1A60204600220421FFF794FF40
:1053100004F1680001220921FFF78EFF04F1D0009B
:105320000222BDE810401221FFF786BF580400207A
:1053300020030020A5520008014800F008B900BF72
:1053400061040020014800F003B900BF610400209F
:1053500010B50446FFF7F0FF236A1BB1BDE810400B
:10536000FFF7F0BF044B2362044B1B68002BF5D101
:10537000FFF7C4FFF2E700BFBD5200085804002049
:105380002DE9F8430746884614460026D4E90195DE
:10539000B9F1010905D52468002CF7D13046BDE8E4
:1053A000F883AB89012B07D9B5F90E30013303D04F
:1053B00029463846C04706436835E9E70FB407B5C4
:1053C000064904AB086853F8042B8168019300F088
:1053D000E3F903B05DF804EB04B070472C00002043
:1053E00010B50C46B1F90E1000F068F80028ABBFFC
:1053F000636DA3891B1823F48053ACBF6365A3813D
:1054000010BD2DE9F0411F468B89DB0505460C4692
:10541000164605D5B1F90E100223002200F03CF823
:10542000A389B4F90E1023F48053A38132463B467E
:105430002846BDE8F04100F053B810B50C46B1F96C
:105440000E1000F029F8431CA38915BF606523F4F2
:10545000805343F48053A38118BFA38110BDB1F9D9
:105460000E1000F009B802440346934200D1704781
:1054700003F8011BF9E7000038B5064D0023044688
:1054800008462B60FBF75CFF431C02D12B6803B17D
:10549000236038BD5C04002038B5074D044608463B
:1054A000114600222A601A46FBF771FF431C02D105
:1054B0002B6803B1236038BD5C04002038B5074D6C
:1054C00004460846114600222A601A46FBF7FFFEF2
:1054D000431C02D12B6803B1236038BD5C0400205B
:1054E00038B5074D04460846114600222A601A4680
:1054F000FBF70AFF431C02D12B6803B1236038BDC0
:105500005C04002070B50D4D0D4C641BA4100026EA
:10551000A64209D10B4D0C4C00F0C6FD641BA41033
:105520000026A64205D170BD55F8043B98470136C8
:10553000EEE755F8043B98470136F2E70C7900088E
:105540000C7900080C790008107900087047704742
:105550007047000038B50546002941D051F8043C99
:105560000C1F002BB8BFE41800F0E0F81D4A1368C8
:1055700033B9636014602846BDE8384000F0DCB8F9
:10558000A34208D9206821188B4201BF19685B68C3
:1055900009182160EDE71A465B680BB1A342FAD9FE
:1055A00011685018A0420BD1206801445018834262
:1055B0001160E0D118685B68536008441060DAE756
:1055C00002D90C232B60D6E7206821188B4204BF38
:1055D00019685B68636004BF091821605460CAE7FA
:1055E00038BD00BF6804002070B50F4E0C4631680E
:1055F000054611B900F0B6FC30602146284600F09F
:10560000B1FC431C03D14FF0FF34204670BDC41CD5
:1056100024F00304A042F8D0211A284600F0A2FC8E
:105620000130F2D1EFE700BF640400202DE9F84318
:10563000CD1C25F0030508350C2D38BF0C25002D99
:10564000064601DBA94204D90C2333600020BDE8E3
:10565000F883DFF8D48000F069F8D8F800301C46F1
:1056600044BB29463046FFF7BFFF431C044658D1D0
:10567000D8F800402746002F43D1002C4BD0236898
:105680003946304604EB030900F06CFC814542D1F9
:1056900021686D1A29463046FFF7A6FF01303AD03F
:1056A00023682B442360D8F800305A6862BBC8F8DE
:1056B00000700FE02268521B20D40B2A17D9611901
:1056C000A342256018BF5960636808BFC8F800107E
:1056D00062514B60304600F02FF804F10B00231D9F
:1056E00020F00700C21A1CBF1B1AA350AFE7626864
:1056F000A3420CBFC8F800205A60EBE72346646859
:10570000AEE73C467F68B6E71A465B68A342FBD12A
:1057100000235360DEE70C233360304600F00CF8C2
:1057200094E70560D6E700BF680400200148FFF752
:105730000EBF00BF600400200148FFF709BF00BF93
:10574000600400209368013B002B10B4936008DADA
:105750009469A34201DB0A2903D15DF8044B00F0F0
:105760006DBB1368581C1060197008465DF8044B37
:105770007047F8B506460F461446D518AC4201D11D
:10578000002007E014F8011B3A463046FFF7DAFF25
:10579000431CF3D1F8BD00002DE9F04F0D469DB03C
:1057A00014469846064618B1036A0BB9FFF7D0FDB8
:1057B0006B6ED90705D4AB899A0502D4A86DFFF7A3
:1057C000C6FEAB891B0701D52B699BB9294630461C
:1057D00000F072FB70B16B6EDC0704D54FF0FF3048
:1057E0001DB0BDE8F08FAB899805F7D4A86DFFF721
:1057F000AFFEF3E70023099320238DF82930CDF87D
:105800000C803023DFF8AC818DF82A304FF001098D
:1058100023469A4613F8012B0AB1252AF9D1BAEB8F
:10582000040B0BD05B46224629463046FFF7A1FF0A
:10583000013000F0A780099A5A4409929AF8003082
:10584000002B00F09F8000234FF0FF32CDE90523AD
:105850000AF1010A049307938DF853301A935446C2
:10586000052214F8011B5348FAF7B2FC049AD8B980
:10587000D10644BF20238DF85330130744BF2B2398
:105880008DF853309AF800302A2B15D0079A5446D9
:1058900000204FF00A0C214611F8013B303B092B48
:1058A0004BD9B0B1079214E0A0EB080309FA03F357
:1058B00013430493A246D2E7039B191D1B6803916F
:1058C000002BBBBF5B4242F0020207930793B8BFB5
:1058D000049223782E2B0AD163782A2B32D1039B92
:1058E0001A1D1B68039243EAE37302340593DFF841
:1058F000D4A0217803225046FAF76AFC38B1049B01
:10590000A0EB0A004022824013430134049314F8B0
:10591000011B29488DF828100622FAF759FC0028A7
:105920003FD0264B1BBB039B073323F007030833F1
:105930000393099B3B4409936AE70CFB02320C4634
:105940000120A8E700230134059319464FF00A0C03
:10595000204610F8012B303A092A03D9002BC6D073
:105960000591C4E70CFB012104460123F0E703ABDA
:1059700000932A46124B04A93046AFF30080074635
:10598000781CD6D16B6ED90705D4AB899A0502D4A1
:10599000A86DFFF7DDFDAB895B063FF51FAF0998EA
:1059A0001EE703AB00932A46054B04A9304600F0DE
:1059B00079F8E4E7D0780008DA7800080000000001
:1059C00073570008D67800082DE9F0471646984628
:1059D0008A680B69DDF820909342B8BF13463360A4
:1059E00091F8432007460C460AB10133336023681F
:1059F000990642BF336802333360256815F0060507
:105A000006D104F1190AE36832689B1AAB4226DC1E
:105A100094F843302268003B18BF012392062BD430
:105A200004F1430241463846C84701301ED023687E
:105A3000226903F00603042B02BFE5683368ED1A00
:105A4000A3680CBF25EAE57500259342C4BF9B1AE5
:105A5000ED1800261A34B5421AD1002008E00123BF
:105A6000524641463846C847013003D14FF0FF3017
:105A7000BDE8F0870135C6E7E1185A1C302081F8EF
:105A80004300224494F8451082F843100233C7E7DC
:105A90000123224641463846C8470130E6D0013648
:105AA000D9E700002DE9FF470F7E0C9E782F914625
:105AB00080460C469A4601F1430207D8622F0AD865
:105AC000002F00F0D280582F00F0B98004F1420678
:105AD00084F842703AE0A7F16303152BF6D801A1D0
